{
  "_format": "hh-sol-artifact-1",
  "contractName": "InterestRateModel",
  "sourceName": "contracts/InterestRateModel.sol",
  "abi": [
    {
      "inputs": [],
      "name": "HIGH_RISK_RATE",
      "outputs": [
        {
          "internalType": "uint256",
          "name": "",
          "type": "uint256"
        }
      ],
      "stateMutability": "view",
      "type": "function"
    },
    {
      "inputs": [],
      "name": "LOW_RISK_RATE",
      "outputs": [
        {
          "internalType": "uint256",
          "name": "",
          "type": "uint256"
        }
      ],
      "stateMutability": "view",
      "type": "function"
    },
    {
      "inputs": [],
      "name": "MEDIUM_RISK_RATE",
      "outputs": [
        {
          "internalType": "uint256",
          "name": "",
          "type": "uint256"
        }
      ],
      "stateMutability": "view",
      "type": "function"
    },
    {
      "inputs": [
        {
          "internalType": "uint256",
          "name": "creditScore",
          "type": "uint256"
        }
      ],
      "name": "getInterestRate",
      "outputs": [
        {
          "internalType": "uint256",
          "name": "",
          "type": "uint256"
        }
      ],
      "stateMutability": "pure",
      "type": "function"
    }
  ],
  "bytecode": "0x608060405234801561001057600080fd5b506102a1806100206000396000f3fe608060405234801561001057600080fd5b506004361061004c5760003560e01c80630c196a74146100515780631610d4da146100815780632941b1a81461009f5780633d966643146100bd575b600080fd5b61006b60048036038101906100669190610197565b6100db565b60405161007891906101d3565b60405180910390f35b61008961014d565b60405161009691906101d3565b60405180910390f35b6100a7610152565b6040516100b491906101d3565b60405180910390f35b6100c5610157565b6040516100d291906101d3565b60405180910390f35b60006064821115610121576040517f08c379a00000000000000000000000000000000000000000000000000000000081526004016101189061024b565b60405180910390fd5b604782106101325760079050610148565b6029821061014357600c9050610148565b601290505b919050565b600781565b601281565b600c81565b600080fd5b6000819050919050565b61017481610161565b811461017f57600080fd5b50565b6000813590506101918161016b565b92915050565b6000602082840312156101ad576101ac61015c565b5b60006101bb84828501610182565b91505092915050565b6101cd81610161565b82525050565b60006020820190506101e860008301846101c4565b92915050565b600082825260208201905092915050565b7f496e76616c6964206372656469742073636f7265000000000000000000000000600082015250565b60006102356014836101ee565b9150610240826101ff565b602082019050919050565b6000602082019050818103600083015261026481610228565b905091905056fea2646970667358221220678829fa41422487f23df2254104a29d5d8ef5415d87b146debe8750db71f24164736f6c63430008140033",
  "linkReferences": {},
  "deployedLinkReferences": {}
}