{
  "_format": "hh-sol-artifact-1",
  "contractName": "LendingPool",
  "sourceName": "contracts/LendingPool.sol",
  "abi": [
    {
      "inputs": [],
      "stateMutability": "nonpayable",
      "type": "constructor"
    },
    {
      "anonymous": false,
      "inputs": [
        {
          "indexed": true,
          "internalType": "address",
          "name": "user",
          "type": "address"
        },
        {
          "indexed": false,
          "internalType": "uint256",
          "name": "amount",
          "type": "uint256"
        }
      ],
      "name": "Deposit",
      "type": "event"
    },
    {
      "anonymous": false,
      "inputs": [
        {
          "indexed": true,
          "internalType": "address",
          "name": "borrower",
          "type": "address"
        },
        {
          "indexed": false,
          "internalType": "uint256",
          "name": "amount",
          "type": "uint256"
        }
      ],
      "name": "LoanIssued",
      "type": "event"
    },
    {
      "anonymous": false,
      "inputs": [
        {
          "indexed": true,
          "internalType": "address",
          "name": "user",
          "type": "address"
        },
        {
          "indexed": false,
          "internalType": "uint256",
          "name": "amount",
          "type": "uint256"
        }
      ],
      "name": "Withdraw",
      "type": "event"
    },
    {
      "inputs": [],
      "name": "deposit",
      "outputs": [],
      "stateMutability": "payable",
      "type": "function"
    },
    {
      "inputs": [
        {
          "internalType": "address",
          "name": "",
          "type": "address"
        }
      ],
      "name": "deposits",
      "outputs": [
        {
          "internalType": "uint256",
          "name": "",
          "type": "uint256"
        }
      ],
      "stateMutability": "view",
      "type": "function"
    },
    {
      "inputs": [],
      "name": "getTotalLiquidity",
      "outputs": [
        {
          "internalType": "uint256",
          "name": "",
          "type": "uint256"
        }
      ],
      "stateMutability": "view",
      "type": "function"
    },
    {
      "inputs": [
        {
          "internalType": "address",
          "name": "borrower",
          "type": "address"
        },
        {
          "internalType": "uint256",
          "name": "amount",
          "type": "uint256"
        }
      ],
      "name": "issueLoan",
      "outputs": [],
      "stateMutability": "nonpayable",
      "type": "function"
    },
    {
      "inputs": [],
      "name": "owner",
      "outputs": [
        {
          "internalType": "address",
          "name": "",
          "type": "address"
        }
      ],
      "stateMutability": "view",
      "type": "function"
    },
    {
      "inputs": [],
      "name": "repay",
      "outputs": [],
      "stateMutability": "payable",
      "type": "function"
    },
    {
      "inputs": [
        {
          "internalType": "address",
          "name": "newOwner",
          "type": "address"
        }
      ],
      "name": "transferOwnership",
      "outputs": [],
      "stateMutability": "nonpayable",
      "type": "function"
    },
    {
      "inputs": [
        {
          "internalType": "uint256",
          "name": "amount",
          "type": "uint256"
        }
      ],
      "name": "withdraw",
      "outputs": [],
      "stateMutability": "nonpayable",
      "type": "function"
    }
  ],
  "bytecode": "0x608060405234801561001057600080fd5b50336000806101000a81548173ffffffffffffffffffffffffffffffffffffffff021916908373ffffffffffffffffffffffffffffffffffffffff160217905550610d2a806100606000396000f3fe60806040526004361061007b5760003560e01c80638da5cb5b1161004e5780638da5cb5b14610107578063d0e30db014610132578063f2fde38b1461013c578063fc7e286d146101655761007b565b80631895687d146100805780632e1a7d4d146100a957806335c7e925146100d2578063402d8883146100fd575b600080fd5b34801561008c57600080fd5b506100a760048036038101906100a29190610824565b6101a2565b005b3480156100b557600080fd5b506100d060048036038101906100cb9190610864565b610372565b005b3480156100de57600080fd5b506100e7610548565b6040516100f491906108a0565b60405180910390f35b610105610550565b005b34801561011357600080fd5b5061011c610595565b60405161012991906108ca565b60405180910390f35b61013a6105b9565b005b34801561014857600080fd5b50610163600480360381019061015e91906108e5565b6106a2565b005b34801561017157600080fd5b5061018c600480360381019061018791906108e5565b610773565b60405161019991906108a0565b60405180910390f35b60008054906101000a900473ffffffffffffffffffffffffffffffffffffffff1673ffffffffffffffffffffffffffffffffffffffff163373ffffffffffffffffffffffffffffffffffffffff1614610230576040517f08c379a00000000000000000000000000000000000000000000000000000000081526004016102279061096f565b60405180910390fd5b80471015610273576040517f08c379a000000000000000000000000000000000000000000000000000000000815260040161026a906109db565b60405180910390fd5b60008273ffffffffffffffffffffffffffffffffffffffff168260405161029990610a2c565b60006040518083038185875af1925050503d80600081146102d6576040519150601f19603f3d011682016040523d82523d6000602084013e6102db565b606091505b505090508061031f576040517f08c379a000000000000000000000000000000000000000000000000000000000815260040161031690610a8d565b60405180910390fd5b8273ffffffffffffffffffffffffffffffffffffffff167f7a954f5289898ac88c79469be62462b769f41c4f171a4f4591ef5a62b6fbf74f8360405161036591906108a0565b60405180910390a2505050565b80600160003373ffffffffffffffffffffffffffffffffffffffff1673ffffffffffffffffffffffffffffffffffffffff1681526020019081526020016000205410156103f4576040517f08c379a00000000000000000000000000000000000000000000000000000000081526004016103eb90610af9565b60405180910390fd5b80600160003373ffffffffffffffffffffffffffffffffffffffff1673ffffffffffffffffffffffffffffffffffffffff16815260200190815260200160002060008282546104439190610b48565b9250508190555060003373ffffffffffffffffffffffffffffffffffffffff168260405161047090610a2c565b60006040518083038185875af1925050503d80600081146104ad576040519150601f19603f3d011682016040523d82523d6000602084013e6104b2565b606091505b50509050806104f6576040517f08c379a00000000000000000000000000000000000000000000000000000000081526004016104ed90610bc8565b60405180910390fd5b3373ffffffffffffffffffffffffffffffffffffffff167f884edad9ce6fa2440d8a54cc123490eb96d2768479d49ff9c7366125a94243648360405161053c91906108a0565b60405180910390a25050565b600047905090565b60003411610593576040517f08c379a000000000000000000000000000000000000000000000000000000000815260040161058a90610c34565b60405180910390fd5b565b60008054906101000a900473ffffffffffffffffffffffffffffffffffffffff1681565b600034116105fc576040517f08c379a00000000000000000000000000000000000000000000000000000000081526004016105f390610ca0565b60405180910390fd5b34600160003373ffffffffffffffffffffffffffffffffffffffff1673ffffffffffffffffffffffffffffffffffffffff168152602001908152602001600020600082825461064b9190610cc0565b925050819055503373ffffffffffffffffffffffffffffffffffffffff167fe1fffcc4923d04b559f4d29a8bfc6cda04eb5b0d3c460751c2402c5c5cc9109c3460405161069891906108a0565b60405180910390a2565b60008054906101000a900473ffffffffffffffffffffffffffffffffffffffff1673ffffffffffffffffffffffffffffffffffffffff163373ffffffffffffffffffffffffffffffffffffffff1614610730576040517f08c379a00000000000000000000000000000000000000000000000000000000081526004016107279061096f565b60405180910390fd5b806000806101000a81548173ffffffffffffffffffffffffffffffffffffffff021916908373ffffffffffffffffffffffffffffffffffffffff16021790555050565b60016020528060005260406000206000915090505481565b600080fd5b600073ffffffffffffffffffffffffffffffffffffffff82169050919050565b60006107bb82610790565b9050919050565b6107cb816107b0565b81146107d657600080fd5b50565b6000813590506107e8816107c2565b92915050565b6000819050919050565b610801816107ee565b811461080c57600080fd5b50565b60008135905061081e816107f8565b92915050565b6000806040838503121561083b5761083a61078b565b5b6000610849858286016107d9565b925050602061085a8582860161080f565b9150509250929050565b60006020828403121561087a5761087961078b565b5b60006108888482850161080f565b91505092915050565b61089a816107ee565b82525050565b60006020820190506108b56000830184610891565b92915050565b6108c4816107b0565b82525050565b60006020820190506108df60008301846108bb565b92915050565b6000602082840312156108fb576108fa61078b565b5b6000610909848285016107d9565b91505092915050565b600082825260208201905092915050565b7f4e6f7420617574686f72697a6564000000000000000000000000000000000000600082015250565b6000610959600e83610912565b915061096482610923565b602082019050919050565b600060208201905081810360008301526109888161094c565b9050919050565b7f506f6f6c2062616c616e6365206c6f7700000000000000000000000000000000600082015250565b60006109c5601083610912565b91506109d08261098f565b602082019050919050565b600060208201905081810360008301526109f4816109b8565b9050919050565b600081905092915050565b50565b6000610a166000836109fb565b9150610a2182610a06565b600082019050919050565b6000610a3782610a09565b9150819050919050565b7f455448207472616e73666572206661696c656400000000000000000000000000600082015250565b6000610a77601383610912565b9150610a8282610a41565b602082019050919050565b60006020820190508181036000830152610aa681610a6a565b9050919050565b7f496e73756666696369656e742062616c616e6365000000000000000000000000600082015250565b6000610ae3601483610912565b9150610aee82610aad565b602082019050919050565b60006020820190508181036000830152610b1281610ad6565b9050919050565b7f4e487b7100000000000000000000000000000000000000000000000000000000600052601160045260246000fd5b6000610b53826107ee565b9150610b5e836107ee565b9250828203905081811115610b7657610b75610b19565b5b92915050565b7f5472616e73666572206661696c65640000000000000000000000000000000000600082015250565b6000610bb2600f83610912565b9150610bbd82610b7c565b602082019050919050565b60006020820190508181036000830152610be181610ba5565b9050919050565b7f5265706179206d757374206265203e2030000000000000000000000000000000600082015250565b6000610c1e601183610912565b9150610c2982610be8565b602082019050919050565b60006020820190508181036000830152610c4d81610c11565b9050919050565b7f4465706f736974206d757374206265203e203000000000000000000000000000600082015250565b6000610c8a601383610912565b9150610c9582610c54565b602082019050919050565b60006020820190508181036000830152610cb981610c7d565b9050919050565b6000610ccb826107ee565b9150610cd6836107ee565b9250828201905080821115610cee57610ced610b19565b5b9291505056fea26469706673582212202c36c2af61a483a0790670a4aa6a8093cb49f6b79693df3877751b401356d8b664736f6c63430008140033",
  "linkReferences": {},
  "deployedLinkReferences": {}
}