{
  "_format": "hh-sol-artifact-1",
  "contractName": "LoanManager",
  "sourceName": "contracts/LoanManager.sol",
  "abi": [
    {
      "inputs": [
        {
          "internalType": "address",
          "name": "_creditRegistry",
          "type": "address"
        },
        {
          "internalType": "address",
          "name": "_rateModel",
          "type": "address"
        },
        {
          "internalType": "address payable",
          "name": "_lendingPool",
          "type": "address"
        }
      ],
      "stateMutability": "nonpayable",
      "type": "constructor"
    },
    {
      "anonymous": false,
      "inputs": [
        {
          "indexed": false,
          "internalType": "address",
          "name": "borrower",
          "type": "address"
        },
        {
          "indexed": false,
          "internalType": "uint256",
          "name": "amount",
          "type": "uint256"
        },
        {
          "indexed": false,
          "internalType": "uint256",
          "name": "interest",
          "type": "uint256"
        }
      ],
      "name": "LoanIssued",
      "type": "event"
    },
    {
      "anonymous": false,
      "inputs": [
        {
          "indexed": false,
          "internalType": "address",
          "name": "borrower",
          "type": "address"
        },
        {
          "indexed": false,
          "internalType": "uint256",
          "name": "amount",
          "type": "uint256"
        }
      ],
      "name": "LoanRepaid",
      "type": "event"
    },
    {
      "inputs": [],
      "name": "activeLoans",
      "outputs": [
        {
          "internalType": "uint256",
          "name": "",
          "type": "uint256"
        }
      ],
      "stateMutability": "view",
      "type": "function"
    },
    {
      "inputs": [],
      "name": "creditRegistry",
      "outputs": [
        {
          "internalType": "contract CreditScoreRegistry",
          "name": "",
          "type": "address"
        }
      ],
      "stateMutability": "view",
      "type": "function"
    },
    {
      "inputs": [
        {
          "internalType": "address",
          "name": "user",
          "type": "address"
        }
      ],
      "name": "getLoan",
      "outputs": [
        {
          "internalType": "uint256",
          "name": "amount",
          "type": "uint256"
        },
        {
          "internalType": "uint256",
          "name": "interestRate",
          "type": "uint256"
        },
        {
          "internalType": "bool",
          "name": "active",
          "type": "bool"
        }
      ],
      "stateMutability": "view",
      "type": "function"
    },
    {
      "inputs": [],
      "name": "lendingPool",
      "outputs": [
        {
          "internalType": "contract LendingPool",
          "name": "",
          "type": "address"
        }
      ],
      "stateMutability": "view",
      "type": "function"
    },
    {
      "inputs": [
        {
          "internalType": "address",
          "name": "",
          "type": "address"
        }
      ],
      "name": "loans",
      "outputs": [
        {
          "internalType": "uint256",
          "name": "amount",
          "type": "uint256"
        },
        {
          "internalType": "uint256",
          "name": "interestRate",
          "type": "uint256"
        },
        {
          "internalType": "bool",
          "name": "active",
          "type": "bool"
        }
      ],
      "stateMutability": "view",
      "type": "function"
    },
    {
      "inputs": [],
      "name": "owner",
      "outputs": [
        {
          "internalType": "address",
          "name": "",
          "type": "address"
        }
      ],
      "stateMutability": "view",
      "type": "function"
    },
    {
      "inputs": [],
      "name": "rateModel",
      "outputs": [
        {
          "internalType": "contract InterestRateModel",
          "name": "",
          "type": "address"
        }
      ],
      "stateMutability": "view",
      "type": "function"
    },
    {
      "inputs": [],
      "name": "repayLoan",
      "outputs": [],
      "stateMutability": "payable",
      "type": "function"
    },
    {
      "inputs": [
        {
          "internalType": "uint256",
          "name": "amount",
          "type": "uint256"
        }
      ],
      "name": "requestLoan",
      "outputs": [],
      "stateMutability": "nonpayable",
      "type": "function"
    }
  ],
  "bytecode": "0x60806040523480156200001157600080fd5b5060405162001532380380620015328339818101604052810190620000379190620001f2565b826000806101000a81548173ffffffffffffffffffffffffffffffffffffffff021916908373ffffffffffffffffffffffffffffffffffffffff16021790555081600160006101000a81548173ffffffffffffffffffffffffffffffffffffffff021916908373ffffffffffffffffffffffffffffffffffffffff16021790555080600260006101000a81548173ffffffffffffffffffffffffffffffffffffffff021916908373ffffffffffffffffffffffffffffffffffffffff16021790555033600360006101000a81548173ffffffffffffffffffffffffffffffffffffffff021916908373ffffffffffffffffffffffffffffffffffffffff1602179055505050506200024e565b600080fd5b600073ffffffffffffffffffffffffffffffffffffffff82169050919050565b6000620001758262000148565b9050919050565b620001878162000168565b81146200019357600080fd5b50565b600081519050620001a7816200017c565b92915050565b6000620001ba8262000148565b9050919050565b620001cc81620001ad565b8114620001d857600080fd5b50565b600081519050620001ec81620001c1565b92915050565b6000806000606084860312156200020e576200020d62000143565b5b60006200021e8682870162000196565b9350506020620002318682870162000196565b92505060406200024486828701620001db565b9150509250925092565b6112d4806200025e6000396000f3fe6080604052600436106100865760003560e01c80638da5cb5b116100595780638da5cb5b1461015d578063a108845914610188578063a59a9973146101b3578063b015a5e8146101de578063f966ade71461020957610086565b806333481fc91461008b578063416b40c7146100ca57806373b4086b146100f55780638d5d342914610134575b600080fd5b34801561009757600080fd5b506100b260048036038101906100ad9190610c02565b610213565b6040516100c193929190610c63565b60405180910390f35b3480156100d657600080fd5b506100df6102b1565b6040516100ec9190610c9a565b60405180910390f35b34801561010157600080fd5b5061011c60048036038101906101179190610c02565b6102b7565b60405161012b93929190610c63565b60405180910390f35b34801561014057600080fd5b5061015b60048036038101906101569190610ce1565b6102ee565b005b34801561016957600080fd5b506101726107b6565b60405161017f9190610d1d565b60405180910390f35b34801561019457600080fd5b5061019d6107dc565b6040516101aa9190610d97565b60405180910390f35b3480156101bf57600080fd5b506101c8610802565b6040516101d59190610dd3565b60405180910390f35b3480156101ea57600080fd5b506101f3610828565b6040516102009190610e0f565b60405180910390f35b61021161084c565b005b600080600080600560008673ffffffffffffffffffffffffffffffffffffffff1673ffffffffffffffffffffffffffffffffffffffff16815260200190815260200160002060405180606001604052908160008201548152602001600182015481526020016002820160009054906101000a900460ff1615151515815250509050806000015181602001518260400151935093509350509193909250565b60045481565b60056020528060005260406000206000915090508060000154908060010154908060020160009054906101000a900460ff16905083565b60008111610331576040517f08c379a000000000000000000000000000000000000000000000000000000000815260040161032890610e87565b60405180910390fd5b600560003373ffffffffffffffffffffffffffffffffffffffff1673ffffffffffffffffffffffffffffffffffffffff16815260200190815260200160002060020160009054906101000a900460ff16156103c1576040517f08c379a00000000000000000000000000000000000000000000000000000000081526004016103b890610ef3565b60405180910390fd5b60008060009054906101000a900473ffffffffffffffffffffffffffffffffffffffff1673ffffffffffffffffffffffffffffffffffffffff1663d47875d0336040518263ffffffff1660e01b815260040161041d9190610d1d565b602060405180830381865afa15801561043a573d6000803e3d6000fd5b505050506040513d601f19601f8201168201806040525081019061045e9190610f28565b9050600081116104a3576040517f08c379a000000000000000000000000000000000000000000000000000000000815260040161049a90610fa1565b60405180910390fd5b6000600260009054906101000a900473ffffffffffffffffffffffffffffffffffffffff1673ffffffffffffffffffffffffffffffffffffffff166335c7e9256040518163ffffffff1660e01b8152600401602060405180830381865afa158015610512573d6000803e3d6000fd5b505050506040513d601f19601f820116820180604052508101906105369190610f28565b9050600060c883836105489190610ff0565b6105529190611061565b905080841115610597576040517f08c379a000000000000000000000000000000000000000000000000000000000815260040161058e906110de565b60405180910390fd5b6000600160009054906101000a900473ffffffffffffffffffffffffffffffffffffffff1673ffffffffffffffffffffffffffffffffffffffff16630c196a74856040518263ffffffff1660e01b81526004016105f49190610c9a565b602060405180830381865afa158015610611573d6000803e3d6000fd5b505050506040513d601f19601f820116820180604052508101906106359190610f28565b9050604051806060016040528086815260200182815260200160011515815250600560003373ffffffffffffffffffffffffffffffffffffffff1673ffffffffffffffffffffffffffffffffffffffff168152602001908152602001600020600082015181600001556020820151816001015560408201518160020160006101000a81548160ff0219169083151502179055509050506001600460008282546106de91906110fe565b92505081905550600260009054906101000a900473ffffffffffffffffffffffffffffffffffffffff1673ffffffffffffffffffffffffffffffffffffffff16631895687d33876040518363ffffffff1660e01b8152600401610742929190611132565b600060405180830381600087803b15801561075c57600080fd5b505af1158015610770573d6000803e3d6000fd5b505050507f1c793c0fda4a6b2b79dd68d91d9f7fde8f7aa0878615c36a4624e6ccdbb1ead13386836040516107a79392919061115b565b60405180910390a15050505050565b600360009054906101000a900473ffffffffffffffffffffffffffffffffffffffff1681565b600160009054906101000a900473ffffffffffffffffffffffffffffffffffffffff1681565b600260009054906101000a900473ffffffffffffffffffffffffffffffffffffffff1681565b60008054906101000a900473ffffffffffffffffffffffffffffffffffffffff1681565b6000600560003373ffffffffffffffffffffffffffffffffffffffff1673ffffffffffffffffffffffffffffffffffffffff16815260200190815260200160002090508060020160009054906101000a900460ff166108e0576040517f08c379a00000000000000000000000000000000000000000000000000000000081526004016108d7906111de565b60405180910390fd5b60006064826001015483600001546108f89190610ff0565b6109029190611061565b9050600081836000015461091691906110fe565b905080341461095a576040517f08c379a00000000000000000000000000000000000000000000000000000000081526004016109519061124a565b60405180910390fd5b60008360020160006101000a81548160ff02191690831515021790555060016004600082825461098a919061126a565b92505081905550600260009054906101000a900473ffffffffffffffffffffffffffffffffffffffff1673ffffffffffffffffffffffffffffffffffffffff1663402d8883346040518263ffffffff1660e01b81526004016000604051808303818588803b1580156109fb57600080fd5b505af1158015610a0f573d6000803e3d6000fd5b505050505060008060009054906101000a900473ffffffffffffffffffffffffffffffffffffffff1673ffffffffffffffffffffffffffffffffffffffff1663d47875d0336040518263ffffffff1660e01b8152600401610a709190610d1d565b602060405180830381865afa158015610a8d573d6000803e3d6000fd5b505050506040513d601f19601f82011682018060405250810190610ab19190610f28565b90506000600582610ac291906110fe565b90506064811115610ad257606490505b60008054906101000a900473ffffffffffffffffffffffffffffffffffffffff1673ffffffffffffffffffffffffffffffffffffffff166365d9772433836040518363ffffffff1660e01b8152600401610b2d929190611132565b600060405180830381600087803b158015610b4757600080fd5b505af1158015610b5b573d6000803e3d6000fd5b505050507fc200a1f31dd659e356e0f112c82558e25f49f7b0f84438691cd96f5cb35588233384604051610b90929190611132565b60405180910390a15050505050565b600080fd5b600073ffffffffffffffffffffffffffffffffffffffff82169050919050565b6000610bcf82610ba4565b9050919050565b610bdf81610bc4565b8114610bea57600080fd5b50565b600081359050610bfc81610bd6565b92915050565b600060208284031215610c1857610c17610b9f565b5b6000610c2684828501610bed565b91505092915050565b6000819050919050565b610c4281610c2f565b82525050565b60008115159050919050565b610c5d81610c48565b82525050565b6000606082019050610c786000830186610c39565b610c856020830185610c39565b610c926040830184610c54565b949350505050565b6000602082019050610caf6000830184610c39565b92915050565b610cbe81610c2f565b8114610cc957600080fd5b50565b600081359050610cdb81610cb5565b92915050565b600060208284031215610cf757610cf6610b9f565b5b6000610d0584828501610ccc565b91505092915050565b610d1781610bc4565b82525050565b6000602082019050610d326000830184610d0e565b92915050565b6000819050919050565b6000610d5d610d58610d5384610ba4565b610d38565b610ba4565b9050919050565b6000610d6f82610d42565b9050919050565b6000610d8182610d64565b9050919050565b610d9181610d76565b82525050565b6000602082019050610dac6000830184610d88565b92915050565b6000610dbd82610d64565b9050919050565b610dcd81610db2565b82525050565b6000602082019050610de86000830184610dc4565b92915050565b6000610df982610d64565b9050919050565b610e0981610dee565b82525050565b6000602082019050610e246000830184610e00565b92915050565b600082825260208201905092915050565b7f4c6f616e206d757374206265203e203000000000000000000000000000000000600082015250565b6000610e71601083610e2a565b9150610e7c82610e3b565b602082019050919050565b60006020820190508181036000830152610ea081610e64565b9050919050565b7f4578697374696e67206c6f616e20616374697665000000000000000000000000600082015250565b6000610edd601483610e2a565b9150610ee882610ea7565b602082019050919050565b60006020820190508181036000830152610f0c81610ed0565b9050919050565b600081519050610f2281610cb5565b92915050565b600060208284031215610f3e57610f3d610b9f565b5b6000610f4c84828501610f13565b91505092915050565b7f4e6f206372656469742073636f72650000000000000000000000000000000000600082015250565b6000610f8b600f83610e2a565b9150610f9682610f55565b602082019050919050565b60006020820190508181036000830152610fba81610f7e565b9050919050565b7f4e487b7100000000000000000000000000000000000000000000000000000000600052601160045260246000fd5b6000610ffb82610c2f565b915061100683610c2f565b925082820261101481610c2f565b9150828204841483151761102b5761102a610fc1565b5b5092915050565b7f4e487b7100000000000000000000000000000000000000000000000000000000600052601260045260246000fd5b600061106c82610c2f565b915061107783610c2f565b92508261108757611086611032565b5b828204905092915050565b7f4c6f616e2065786365656473206c696d69740000000000000000000000000000600082015250565b60006110c8601283610e2a565b91506110d382611092565b602082019050919050565b600060208201905081810360008301526110f7816110bb565b9050919050565b600061110982610c2f565b915061111483610c2f565b925082820190508082111561112c5761112b610fc1565b5b92915050565b60006040820190506111476000830185610d0e565b6111546020830184610c39565b9392505050565b60006060820190506111706000830186610d0e565b61117d6020830185610c39565b61118a6040830184610c39565b949350505050565b7f4e6f20616374697665206c6f616e000000000000000000000000000000000000600082015250565b60006111c8600e83610e2a565b91506111d382611192565b602082019050919050565b600060208201905081810360008301526111f7816111bb565b9050919050565b7f496e73756666696369656e742072657061796d656e7400000000000000000000600082015250565b6000611234601683610e2a565b915061123f826111fe565b602082019050919050565b6000602082019050818103600083015261126381611227565b9050919050565b600061127582610c2f565b915061128083610c2f565b925082820390508181111561129857611297610fc1565b5b9291505056fea26469706673582212203a987e04836cc31057569b26b63741beffe377406f21fd2563b73a36a00cf6d664736f6c63430008140033",
  "linkReferences": {},
  "deployedLinkReferences": {}
}